{
  "address": "0xEB71d43dF82C644be3a6F68bcF527C64AE3D5e12",
  "abi": [
    {
      "inputs": [],
      "stateMutability": "nonpayable",
      "type": "constructor"
    },
    {
      "inputs": [],
      "name": "CallerIsNotFiller",
      "type": "error"
    },
    {
      "inputs": [],
      "name": "CallerIsNotPredyPool",
      "type": "error"
    },
    {
      "inputs": [],
      "name": "DeadlinePassed",
      "type": "error"
    },
    {
      "inputs": [],
      "name": "HedgeTriggerNotMatched",
      "type": "error"
    },
    {
      "inputs": [],
      "name": "InvalidAveragePrice",
      "type": "error"
    },
    {
      "inputs": [],
      "name": "InvalidMarket",
      "type": "error"
    },
    {
      "inputs": [],
      "name": "OutOfAcceptablePriceRange",
      "type": "error"
    },
    {
      "inputs": [],
      "name": "SettlementContractIsNotWhitelisted",
      "type": "error"
    },
    {
      "inputs": [],
      "name": "SignerIsNotVaultOwner",
      "type": "error"
    },
    {
      "inputs": [],
      "name": "SlippageTooLarge",
      "type": "error"
    },
    {
      "inputs": [],
      "name": "TooShortHedgeInterval",
      "type": "error"
    },
    {
      "anonymous": false,
      "inputs": [
        {
          "indexed": true,
          "internalType": "address",
          "name": "trader",
          "type": "address"
        },
        {
          "indexed": false,
          "internalType": "uint256",
          "name": "pairId",
          "type": "uint256"
        },
        {
          "indexed": false,
          "internalType": "uint256",
          "name": "vaultId",
          "type": "uint256"
        },
        {
          "indexed": false,
          "internalType": "uint256",
          "name": "sqrtPrice",
          "type": "uint256"
        },
        {
          "indexed": false,
          "internalType": "int256",
          "name": "delta",
          "type": "int256"
        },
        {
          "components": [
            {
              "internalType": "int256",
              "name": "perpEntryUpdate",
              "type": "int256"
            },
            {
              "internalType": "int256",
              "name": "sqrtEntryUpdate",
              "type": "int256"
            },
            {
              "internalType": "int256",
              "name": "sqrtRebalanceEntryUpdateUnderlying",
              "type": "int256"
            },
            {
              "internalType": "int256",
              "name": "sqrtRebalanceEntryUpdateStable",
              "type": "int256"
            },
            {
              "internalType": "int256",
              "name": "perpPayoff",
              "type": "int256"
            },
            {
              "internalType": "int256",
              "name": "sqrtPayoff",
              "type": "int256"
            }
          ],
          "indexed": false,
          "internalType": "struct IPredyPool.Payoff",
          "name": "payoff",
          "type": "tuple"
        },
        {
          "indexed": false,
          "internalType": "int256",
          "name": "fee",
          "type": "int256"
        }
      ],
      "name": "GammaPositionHedged",
      "type": "event"
    },
    {
      "anonymous": false,
      "inputs": [
        {
          "indexed": true,
          "internalType": "address",
          "name": "trader",
          "type": "address"
        },
        {
          "indexed": false,
          "internalType": "uint256",
          "name": "pairId",
          "type": "uint256"
        },
        {
          "indexed": false,
          "internalType": "uint256",
          "name": "vaultId",
          "type": "uint256"
        },
        {
          "indexed": false,
          "internalType": "uint256",
          "name": "hedgeInterval",
          "type": "uint256"
        },
        {
          "indexed": false,
          "internalType": "uint256",
          "name": "sqrtPriceTrigger",
          "type": "uint256"
        },
        {
          "components": [
            {
              "internalType": "int256",
              "name": "perpEntryUpdate",
              "type": "int256"
            },
            {
              "internalType": "int256",
              "name": "sqrtEntryUpdate",
              "type": "int256"
            },
            {
              "internalType": "int256",
              "name": "sqrtRebalanceEntryUpdateUnderlying",
              "type": "int256"
            },
            {
              "internalType": "int256",
              "name": "sqrtRebalanceEntryUpdateStable",
              "type": "int256"
            },
            {
              "internalType": "int256",
              "name": "perpPayoff",
              "type": "int256"
            },
            {
              "internalType": "int256",
              "name": "sqrtPayoff",
              "type": "int256"
            }
          ],
          "indexed": false,
          "internalType": "struct IPredyPool.Payoff",
          "name": "payoff",
          "type": "tuple"
        },
        {
          "indexed": false,
          "internalType": "int256",
          "name": "fee",
          "type": "int256"
        },
        {
          "indexed": false,
          "internalType": "int256",
          "name": "marginAmount",
          "type": "int256"
        }
      ],
      "name": "GammaPositionTraded",
      "type": "event"
    },
    {
      "anonymous": false,
      "inputs": [
        {
          "indexed": false,
          "internalType": "uint8",
          "name": "version",
          "type": "uint8"
        }
      ],
      "name": "Initialized",
      "type": "event"
    },
    {
      "inputs": [
        {
          "internalType": "address",
          "name": "owner",
          "type": "address"
        },
        {
          "internalType": "uint256",
          "name": "pairId",
          "type": "uint256"
        },
        {
          "components": [
            {
              "internalType": "uint256",
              "name": "price",
              "type": "uint256"
            },
            {
              "internalType": "int256",
              "name": "fee",
              "type": "int256"
            },
            {
              "components": [
                {
                  "internalType": "address",
                  "name": "contractAddress",
                  "type": "address"
                },
                {
                  "internalType": "bytes",
                  "name": "encodedData",
                  "type": "bytes"
                },
                {
                  "internalType": "uint256",
                  "name": "maxQuoteAmount",
                  "type": "uint256"
                },
                {
                  "internalType": "uint256",
                  "name": "partialBaseAmount",
                  "type": "uint256"
                }
              ],
              "internalType": "struct IFillerMarket.SettlementParamsItem[]",
              "name": "items",
              "type": "tuple[]"
            }
          ],
          "internalType": "struct IFillerMarket.SettlementParams",
          "name": "settlementParams",
          "type": "tuple"
        }
      ],
      "name": "execDeltaHedge",
      "outputs": [
        {
          "components": [
            {
              "components": [
                {
                  "internalType": "int256",
                  "name": "perpEntryUpdate",
                  "type": "int256"
                },
                {
                  "internalType": "int256",
                  "name": "sqrtEntryUpdate",
                  "type": "int256"
                },
                {
                  "internalType": "int256",
                  "name": "sqrtRebalanceEntryUpdateUnderlying",
                  "type": "int256"
                },
                {
                  "internalType": "int256",
                  "name": "sqrtRebalanceEntryUpdateStable",
                  "type": "int256"
                },
                {
                  "internalType": "int256",
                  "name": "perpPayoff",
                  "type": "int256"
                },
                {
                  "internalType": "int256",
                  "name": "sqrtPayoff",
                  "type": "int256"
                }
              ],
              "internalType": "struct IPredyPool.Payoff",
              "name": "payoff",
              "type": "tuple"
            },
            {
              "internalType": "uint256",
              "name": "vaultId",
              "type": "uint256"
            },
            {
              "internalType": "int256",
              "name": "fee",
              "type": "int256"
            },
            {
              "internalType": "int256",
              "name": "minMargin",
              "type": "int256"
            },
            {
              "internalType": "int256",
              "name": "averagePrice",
              "type": "int256"
            },
            {
              "internalType": "uint256",
              "name": "sqrtTwap",
              "type": "uint256"
            },
            {
              "internalType": "uint256",
              "name": "sqrtPrice",
              "type": "uint256"
            }
          ],
          "internalType": "struct IPredyPool.TradeResult",
          "name": "tradeResult",
          "type": "tuple"
        }
      ],
      "stateMutability": "nonpayable",
      "type": "function"
    },
    {
      "inputs": [
        {
          "internalType": "uint256",
          "name": "vaultId",
          "type": "uint256"
        },
        {
          "internalType": "uint256",
          "name": "closeRatio",
          "type": "uint256"
        },
        {
          "components": [
            {
              "internalType": "uint256",
              "name": "price",
              "type": "uint256"
            },
            {
              "internalType": "int256",
              "name": "fee",
              "type": "int256"
            },
            {
              "components": [
                {
                  "internalType": "address",
                  "name": "contractAddress",
                  "type": "address"
                },
                {
                  "internalType": "bytes",
                  "name": "encodedData",
                  "type": "bytes"
                },
                {
                  "internalType": "uint256",
                  "name": "maxQuoteAmount",
                  "type": "uint256"
                },
                {
                  "internalType": "uint256",
                  "name": "partialBaseAmount",
                  "type": "uint256"
                }
              ],
              "internalType": "struct IFillerMarket.SettlementParamsItem[]",
              "name": "items",
              "type": "tuple[]"
            }
          ],
          "internalType": "struct IFillerMarket.SettlementParams",
          "name": "settlementParams",
          "type": "tuple"
        }
      ],
      "name": "execLiquidationCall",
      "outputs": [
        {
          "components": [
            {
              "components": [
                {
                  "internalType": "int256",
                  "name": "perpEntryUpdate",
                  "type": "int256"
                },
                {
                  "internalType": "int256",
                  "name": "sqrtEntryUpdate",
                  "type": "int256"
                },
                {
                  "internalType": "int256",
                  "name": "sqrtRebalanceEntryUpdateUnderlying",
                  "type": "int256"
                },
                {
                  "internalType": "int256",
                  "name": "sqrtRebalanceEntryUpdateStable",
                  "type": "int256"
                },
                {
                  "internalType": "int256",
                  "name": "perpPayoff",
                  "type": "int256"
                },
                {
                  "internalType": "int256",
                  "name": "sqrtPayoff",
                  "type": "int256"
                }
              ],
              "internalType": "struct IPredyPool.Payoff",
              "name": "payoff",
              "type": "tuple"
            },
            {
              "internalType": "uint256",
              "name": "vaultId",
              "type": "uint256"
            },
            {
              "internalType": "int256",
              "name": "fee",
              "type": "int256"
            },
            {
              "internalType": "int256",
              "name": "minMargin",
              "type": "int256"
            },
            {
              "internalType": "int256",
              "name": "averagePrice",
              "type": "int256"
            },
            {
              "internalType": "uint256",
              "name": "sqrtTwap",
              "type": "uint256"
            },
            {
              "internalType": "uint256",
              "name": "sqrtPrice",
              "type": "uint256"
            }
          ],
          "internalType": "struct IPredyPool.TradeResult",
          "name": "",
          "type": "tuple"
        }
      ],
      "stateMutability": "nonpayable",
      "type": "function"
    },
    {
      "inputs": [
        {
          "components": [
            {
              "internalType": "bytes",
              "name": "order",
              "type": "bytes"
            },
            {
              "internalType": "bytes",
              "name": "sig",
              "type": "bytes"
            }
          ],
          "internalType": "struct IFillerMarket.SignedOrder",
          "name": "order",
          "type": "tuple"
        },
        {
          "components": [
            {
              "internalType": "uint256",
              "name": "price",
              "type": "uint256"
            },
            {
              "internalType": "int256",
              "name": "fee",
              "type": "int256"
            },
            {
              "components": [
                {
                  "internalType": "address",
                  "name": "contractAddress",
                  "type": "address"
                },
                {
                  "internalType": "bytes",
                  "name": "encodedData",
                  "type": "bytes"
                },
                {
                  "internalType": "uint256",
                  "name": "maxQuoteAmount",
                  "type": "uint256"
                },
                {
                  "internalType": "uint256",
                  "name": "partialBaseAmount",
                  "type": "uint256"
                }
              ],
              "internalType": "struct IFillerMarket.SettlementParamsItem[]",
              "name": "items",
              "type": "tuple[]"
            }
          ],
          "internalType": "struct IFillerMarket.SettlementParams",
          "name": "settlementParams",
          "type": "tuple"
        }
      ],
      "name": "executeOrder",
      "outputs": [
        {
          "components": [
            {
              "components": [
                {
                  "internalType": "int256",
                  "name": "perpEntryUpdate",
                  "type": "int256"
                },
                {
                  "internalType": "int256",
                  "name": "sqrtEntryUpdate",
                  "type": "int256"
                },
                {
                  "internalType": "int256",
                  "name": "sqrtRebalanceEntryUpdateUnderlying",
                  "type": "int256"
                },
                {
                  "internalType": "int256",
                  "name": "sqrtRebalanceEntryUpdateStable",
                  "type": "int256"
                },
                {
                  "internalType": "int256",
                  "name": "perpPayoff",
                  "type": "int256"
                },
                {
                  "internalType": "int256",
                  "name": "sqrtPayoff",
                  "type": "int256"
                }
              ],
              "internalType": "struct IPredyPool.Payoff",
              "name": "payoff",
              "type": "tuple"
            },
            {
              "internalType": "uint256",
              "name": "vaultId",
              "type": "uint256"
            },
            {
              "internalType": "int256",
              "name": "fee",
              "type": "int256"
            },
            {
              "internalType": "int256",
              "name": "minMargin",
              "type": "int256"
            },
            {
              "internalType": "int256",
              "name": "averagePrice",
              "type": "int256"
            },
            {
              "internalType": "uint256",
              "name": "sqrtTwap",
              "type": "uint256"
            },
            {
              "internalType": "uint256",
              "name": "sqrtPrice",
              "type": "uint256"
            }
          ],
          "internalType": "struct IPredyPool.TradeResult",
          "name": "tradeResult",
          "type": "tuple"
        }
      ],
      "stateMutability": "nonpayable",
      "type": "function"
    },
    {
      "inputs": [
        {
          "internalType": "address",
          "name": "owner",
          "type": "address"
        },
        {
          "internalType": "uint256",
          "name": "pairId",
          "type": "uint256"
        }
      ],
      "name": "getUserPosition",
      "outputs": [
        {
          "components": [
            {
              "internalType": "uint256",
              "name": "vaultId",
              "type": "uint256"
            },
            {
              "internalType": "uint256",
              "name": "lastHedgedTime",
              "type": "uint256"
            },
            {
              "internalType": "uint256",
              "name": "hedgeInterval",
              "type": "uint256"
            },
            {
              "internalType": "uint256",
              "name": "lastHedgedSqrtPrice",
              "type": "uint256"
            },
            {
              "internalType": "uint256",
              "name": "sqrtPriceTrigger",
              "type": "uint256"
            },
            {
              "internalType": "uint64",
              "name": "minSlippageTolerance",
              "type": "uint64"
            },
            {
              "internalType": "uint64",
              "name": "maxSlippageTolerance",
              "type": "uint64"
            }
          ],
          "internalType": "struct GammaTradeMarket.UserPosition",
          "name": "userPosition",
          "type": "tuple"
        },
        {
          "components": [
            {
              "internalType": "uint256",
              "name": "id",
              "type": "uint256"
            },
            {
              "internalType": "int256",
              "name": "vaultValue",
              "type": "int256"
            },
            {
              "internalType": "int256",
              "name": "minMargin",
              "type": "int256"
            },
            {
              "internalType": "uint256",
              "name": "oraclePrice",
              "type": "uint256"
            },
            {
              "components": [
                {
                  "internalType": "int256",
                  "name": "feeAmountBase",
                  "type": "int256"
                },
                {
                  "internalType": "int256",
                  "name": "feeAmountQuote",
                  "type": "int256"
                }
              ],
              "internalType": "struct DataType.FeeAmount",
              "name": "feeAmount",
              "type": "tuple"
            },
            {
              "components": [
                {
                  "internalType": "int256",
                  "name": "margin",
                  "type": "int256"
                },
                {
                  "internalType": "int256",
                  "name": "amountQuote",
                  "type": "int256"
                },
                {
                  "internalType": "int256",
                  "name": "amountSqrt",
                  "type": "int256"
                },
                {
                  "internalType": "int256",
                  "name": "amountBase",
                  "type": "int256"
                }
              ],
              "internalType": "struct IPredyPool.Position",
              "name": "position",
              "type": "tuple"
            }
          ],
          "internalType": "struct IPredyPool.VaultStatus",
          "name": "",
          "type": "tuple"
        },
        {
          "components": [
            {
              "internalType": "uint256",
              "name": "id",
              "type": "uint256"
            },
            {
              "internalType": "address",
              "name": "marginId",
              "type": "address"
            },
            {
              "internalType": "address",
              "name": "owner",
              "type": "address"
            },
            {
              "internalType": "address",
              "name": "recipient",
              "type": "address"
            },
            {
              "internalType": "int256",
              "name": "margin",
              "type": "int256"
            },
            {
              "components": [
                {
                  "internalType": "uint256",
                  "name": "pairId",
                  "type": "uint256"
                },
                {
                  "internalType": "int24",
                  "name": "rebalanceLastTickLower",
                  "type": "int24"
                },
                {
                  "internalType": "int24",
                  "name": "rebalanceLastTickUpper",
                  "type": "int24"
                },
                {
                  "internalType": "uint64",
                  "name": "lastNumRebalance",
                  "type": "uint64"
                },
                {
                  "components": [
                    {
                      "internalType": "int256",
                      "name": "amount",
                      "type": "int256"
                    },
                    {
                      "internalType": "int256",
                      "name": "entryValue",
                      "type": "int256"
                    }
                  ],
                  "internalType": "struct Perp.PositionStatus",
                  "name": "perp",
                  "type": "tuple"
                },
                {
                  "components": [
                    {
                      "internalType": "int256",
                      "name": "amount",
                      "type": "int256"
                    },
                    {
                      "internalType": "int256",
                      "name": "entryValue",
                      "type": "int256"
                    },
                    {
                      "internalType": "int256",
                      "name": "quoteRebalanceEntryValue",
                      "type": "int256"
                    },
                    {
                      "internalType": "int256",
                      "name": "baseRebalanceEntryValue",
                      "type": "int256"
                    },
                    {
                      "internalType": "uint256",
                      "name": "entryTradeFee0",
                      "type": "uint256"
                    },
                    {
                      "internalType": "uint256",
                      "name": "entryTradeFee1",
                      "type": "uint256"
                    }
                  ],
                  "internalType": "struct Perp.SqrtPositionStatus",
                  "name": "sqrtPerp",
                  "type": "tuple"
                },
                {
                  "components": [
                    {
                      "internalType": "int256",
                      "name": "positionAmount",
                      "type": "int256"
                    },
                    {
                      "internalType": "uint256",
                      "name": "lastFeeGrowth",
                      "type": "uint256"
                    }
                  ],
                  "internalType": "struct ScaledAsset.UserStatus",
                  "name": "basePosition",
                  "type": "tuple"
                },
                {
                  "components": [
                    {
                      "internalType": "int256",
                      "name": "positionAmount",
                      "type": "int256"
                    },
                    {
                      "internalType": "uint256",
                      "name": "lastFeeGrowth",
                      "type": "uint256"
                    }
                  ],
                  "internalType": "struct ScaledAsset.UserStatus",
                  "name": "stablePosition",
                  "type": "tuple"
                }
              ],
              "internalType": "struct Perp.UserStatus",
              "name": "openPosition",
              "type": "tuple"
            }
          ],
          "internalType": "struct DataType.Vault",
          "name": "",
          "type": "tuple"
        }
      ],
      "stateMutability": "nonpayable",
      "type": "function"
    },
    {
      "inputs": [
        {
          "internalType": "contract IPredyPool",
          "name": "predyPool",
          "type": "address"
        },
        {
          "internalType": "address",
          "name": "permit2Address",
          "type": "address"
        },
        {
          "internalType": "address",
          "name": "whitelistFiller",
          "type": "address"
        },
        {
          "internalType": "address",
          "name": "quoterAddress",
          "type": "address"
        }
      ],
      "name": "initialize",
      "outputs": [],
      "stateMutability": "nonpayable",
      "type": "function"
    },
    {
      "inputs": [
        {
          "internalType": "address",
          "name": "quoteToken",
          "type": "address"
        },
        {
          "internalType": "address",
          "name": "baseToken",
          "type": "address"
        },
        {
          "internalType": "bytes",
          "name": "settlementData",
          "type": "bytes"
        },
        {
          "internalType": "int256",
          "name": "baseAmountDelta",
          "type": "int256"
        }
      ],
      "name": "predySettlementCallback",
      "outputs": [],
      "stateMutability": "nonpayable",
      "type": "function"
    },
    {
      "inputs": [
        {
          "components": [
            {
              "internalType": "uint256",
              "name": "pairId",
              "type": "uint256"
            },
            {
              "internalType": "uint256",
              "name": "vaultId",
              "type": "uint256"
            },
            {
              "internalType": "int256",
              "name": "tradeAmount",
              "type": "int256"
            },
            {
              "internalType": "int256",
              "name": "tradeAmountSqrt",
              "type": "int256"
            },
            {
              "internalType": "bytes",
              "name": "extraData",
              "type": "bytes"
            }
          ],
          "internalType": "struct IPredyPool.TradeParams",
          "name": "tradeParams",
          "type": "tuple"
        },
        {
          "components": [
            {
              "components": [
                {
                  "internalType": "int256",
                  "name": "perpEntryUpdate",
                  "type": "int256"
                },
                {
                  "internalType": "int256",
                  "name": "sqrtEntryUpdate",
                  "type": "int256"
                },
                {
                  "internalType": "int256",
                  "name": "sqrtRebalanceEntryUpdateUnderlying",
                  "type": "int256"
                },
                {
                  "internalType": "int256",
                  "name": "sqrtRebalanceEntryUpdateStable",
                  "type": "int256"
                },
                {
                  "internalType": "int256",
                  "name": "perpPayoff",
                  "type": "int256"
                },
                {
                  "internalType": "int256",
                  "name": "sqrtPayoff",
                  "type": "int256"
                }
              ],
              "internalType": "struct IPredyPool.Payoff",
              "name": "payoff",
              "type": "tuple"
            },
            {
              "internalType": "uint256",
              "name": "vaultId",
              "type": "uint256"
            },
            {
              "internalType": "int256",
              "name": "fee",
              "type": "int256"
            },
            {
              "internalType": "int256",
              "name": "minMargin",
              "type": "int256"
            },
            {
              "internalType": "int256",
              "name": "averagePrice",
              "type": "int256"
            },
            {
              "internalType": "uint256",
              "name": "sqrtTwap",
              "type": "uint256"
            },
            {
              "internalType": "uint256",
              "name": "sqrtPrice",
              "type": "uint256"
            }
          ],
          "internalType": "struct IPredyPool.TradeResult",
          "name": "tradeResult",
          "type": "tuple"
        }
      ],
      "name": "predyTradeAfterCallback",
      "outputs": [],
      "stateMutability": "nonpayable",
      "type": "function"
    },
    {
      "inputs": [
        {
          "components": [
            {
              "components": [
                {
                  "internalType": "address",
                  "name": "market",
                  "type": "address"
                },
                {
                  "internalType": "address",
                  "name": "trader",
                  "type": "address"
                },
                {
                  "internalType": "uint256",
                  "name": "nonce",
                  "type": "uint256"
                },
                {
                  "internalType": "uint256",
                  "name": "deadline",
                  "type": "uint256"
                }
              ],
              "internalType": "struct OrderInfo",
              "name": "info",
              "type": "tuple"
            },
            {
              "internalType": "uint64",
              "name": "pairId",
              "type": "uint64"
            },
            {
              "internalType": "address",
              "name": "entryTokenAddress",
              "type": "address"
            },
            {
              "internalType": "int256",
              "name": "tradeAmount",
              "type": "int256"
            },
            {
              "internalType": "int256",
              "name": "tradeAmountSqrt",
              "type": "int256"
            },
            {
              "internalType": "int256",
              "name": "marginAmount",
              "type": "int256"
            },
            {
              "internalType": "uint256",
              "name": "hedgeInterval",
              "type": "uint256"
            },
            {
              "internalType": "uint256",
              "name": "sqrtPriceTrigger",
              "type": "uint256"
            },
            {
              "internalType": "uint64",
              "name": "minSlippageTolerance",
              "type": "uint64"
            },
            {
              "internalType": "uint64",
              "name": "maxSlippageTolerance",
              "type": "uint64"
            },
            {
              "internalType": "address",
              "name": "validatorAddress",
              "type": "address"
            },
            {
              "internalType": "bytes",
              "name": "validationData",
              "type": "bytes"
            }
          ],
          "internalType": "struct GammaOrder",
          "name": "gammaOrder",
          "type": "tuple"
        },
        {
          "components": [
            {
              "internalType": "uint256",
              "name": "price",
              "type": "uint256"
            },
            {
              "internalType": "int256",
              "name": "fee",
              "type": "int256"
            },
            {
              "components": [
                {
                  "internalType": "address",
                  "name": "contractAddress",
                  "type": "address"
                },
                {
                  "internalType": "bytes",
                  "name": "encodedData",
                  "type": "bytes"
                },
                {
                  "internalType": "uint256",
                  "name": "maxQuoteAmount",
                  "type": "uint256"
                },
                {
                  "internalType": "uint256",
                  "name": "partialBaseAmount",
                  "type": "uint256"
                }
              ],
              "internalType": "struct IFillerMarket.SettlementParamsItem[]",
              "name": "items",
              "type": "tuple[]"
            }
          ],
          "internalType": "struct IFillerMarket.SettlementParams",
          "name": "settlementParams",
          "type": "tuple"
        }
      ],
      "name": "quoteExecuteOrder",
      "outputs": [],
      "stateMutability": "nonpayable",
      "type": "function"
    },
    {
      "inputs": [
        {
          "internalType": "uint256",
          "name": "pairId",
          "type": "uint256"
        },
        {
          "components": [
            {
              "internalType": "uint256",
              "name": "price",
              "type": "uint256"
            },
            {
              "internalType": "int256",
              "name": "fee",
              "type": "int256"
            },
            {
              "components": [
                {
                  "internalType": "address",
                  "name": "contractAddress",
                  "type": "address"
                },
                {
                  "internalType": "bytes",
                  "name": "encodedData",
                  "type": "bytes"
                },
                {
                  "internalType": "uint256",
                  "name": "maxQuoteAmount",
                  "type": "uint256"
                },
                {
                  "internalType": "uint256",
                  "name": "partialBaseAmount",
                  "type": "uint256"
                }
              ],
              "internalType": "struct IFillerMarket.SettlementParamsItem[]",
              "name": "items",
              "type": "tuple[]"
            }
          ],
          "internalType": "struct IFillerMarket.SettlementParams",
          "name": "settlementParams",
          "type": "tuple"
        }
      ],
      "name": "reallocate",
      "outputs": [
        {
          "internalType": "bool",
          "name": "relocationOccurred",
          "type": "bool"
        }
      ],
      "stateMutability": "nonpayable",
      "type": "function"
    },
    {
      "inputs": [
        {
          "internalType": "uint256",
          "name": "pairId",
          "type": "uint256"
        }
      ],
      "name": "updateQuoteTokenMap",
      "outputs": [],
      "stateMutability": "nonpayable",
      "type": "function"
    },
    {
      "inputs": [
        {
          "internalType": "address",
          "name": "newWhitelistFiller",
          "type": "address"
        }
      ],
      "name": "updateWhitelistFiller",
      "outputs": [],
      "stateMutability": "nonpayable",
      "type": "function"
    },
    {
      "inputs": [
        {
          "internalType": "address",
          "name": "settlementContractAddress",
          "type": "address"
        },
        {
          "internalType": "bool",
          "name": "isEnabled",
          "type": "bool"
        }
      ],
      "name": "updateWhitelistSettlement",
      "outputs": [],
      "stateMutability": "nonpayable",
      "type": "function"
    },
    {
      "inputs": [
        {
          "internalType": "address",
          "name": "owner",
          "type": "address"
        },
        {
          "internalType": "uint256",
          "name": "pairId",
          "type": "uint256"
        }
      ],
      "name": "userPositions",
      "outputs": [
        {
          "internalType": "uint256",
          "name": "vaultId",
          "type": "uint256"
        },
        {
          "internalType": "uint256",
          "name": "lastHedgedTime",
          "type": "uint256"
        },
        {
          "internalType": "uint256",
          "name": "hedgeInterval",
          "type": "uint256"
        },
        {
          "internalType": "uint256",
          "name": "lastHedgedSqrtPrice",
          "type": "uint256"
        },
        {
          "internalType": "uint256",
          "name": "sqrtPriceTrigger",
          "type": "uint256"
        },
        {
          "internalType": "uint64",
          "name": "minSlippageTolerance",
          "type": "uint64"
        },
        {
          "internalType": "uint64",
          "name": "maxSlippageTolerance",
          "type": "uint64"
        }
      ],
      "stateMutability": "view",
      "type": "function"
    },
    {
      "inputs": [],
      "name": "whitelistFiller",
      "outputs": [
        {
          "internalType": "address",
          "name": "",
          "type": "address"
        }
      ],
      "stateMutability": "view",
      "type": "function"
    }
  ],
  "transactionHash": "0x10130a4ea5442efe52858e3624332918805482682eb40aa4d0d789322ef8596a",
  "args": [],
  "numDeployments": 1,
  "solcInputHash": "5bdbb8d21fc18e3c1253724388bc7a46",
  "bytecode": "0x608060405234801561001057600080fd5b506148f1806100206000396000f3fe608060405234801561001057600080fd5b50600436106100ea5760003560e01c80639a9625921161008c578063ddc1e3fb11610066578063ddc1e3fb14610274578063e1c951ca14610287578063ea2f788c1461029a578063f8c8765e146102c557600080fd5b80639a9625921461022b5780639b3aced11461023e5780639da118101461026157600080fd5b806338d5ff6c116100c857806338d5ff6c146101425780633a379d38146101625780635e1b4d9914610175578063944b560b1461021857600080fd5b8063085090d6146100ef5780631c88ef1e146101045780632e973ed61461012f575b600080fd5b6101026100fd366004612c4f565b6102d8565b005b610117610112366004612cb8565b610347565b60405161012693929190612dfb565b60405180910390f35b61010261013d366004612ee2565b610518565b610155610150366004613067565b61056e565b604051610126919061310e565b61015561017036600461311d565b6108fd565b6101d7610183366004612cb8565b603860209081526000928352604080842090915290825290208054600182015460028301546003840154600485015460059095015493949293919290916001600160401b0380821691600160401b90041687565b60408051978852602088019690965294860193909352606085019190915260808401526001600160401b0390811660a08401521660c082015260e001610126565b610102610226366004613289565b610cc2565b610102610239366004613332565b610fa1565b61025161024c36600461334f565b610fee565b6040519015158152602001610126565b61010261026f366004613403565b611070565b610155610282366004613523565b6111aa565b61010261029536600461355c565b61123e565b6001546102ad906001600160a01b031681565b6040516001600160a01b039091168152602001610126565b6101026102d3366004613575565b611293565b6000546201000090046001600160a01b0316331461030957604051637542ed5d60e11b815260040160405180910390fd5b6000610314836113d2565b905061032160048261141a565b600054610340906201000090046001600160a01b0316868684866114be565b5050505050565b6103996040518060e00160405280600081526020016000815260200160008152602001600081526020016000815260200160006001600160401b0316815260200160006001600160401b031681525090565b6103a1612833565b6103a96128ac565b6001600160a01b038581166000908152603860209081526040808320888452825291829020825160e0810184528154808252600183015493820193909352600280830154828601526003830154606083015260048084015460808401526005909301546001600160401b0380821660a0850152600160401b9091041660c0830152549351630382bbf160e51b815291820192909252909550859291909116906370577e2090602401610140604051808303816000875af1158015610471573d6000803e3d6000fd5b505050506040513d601f19601f820116820180604052508101906104959190613601565b6000548551604051632500ed8d60e21b81526004810191909152620100009091046001600160a01b031690639403b634906024016102a060405180830381865afa1580156104e7573d6000803e3d6000fd5b505050506040513d601f19601f8201168201806040525081019061050b9190613723565b9250925092509250925092565b6001546001600160a01b0316331461054357604051638173c76360e01b815260040160405180910390fd5b6001600160a01b03919091166000908152600460205260409020805460ff1916911515919091179055565b6105766128fd565b61057e611544565b6001600160a01b0384166000908152603860209081526040808320868452909152902080546105ac57600080fd5b600080548254604051632500ed8d60e21b81526004810191909152620100009091046001600160a01b031690639403b634906024016102a060405180830381865afa1580156105ff573d6000803e3d6000fd5b505050506040513d601f19601f820116820180604052508101906106239190613723565b6000805460a08301515160405163acfcd9fd60e01b815260048101919091529293509091620100009091046001600160a01b03169063acfcd9fd90602401602060405180830381865afa15801561067e573d6000803e3d6000fd5b505050506040513d601f19601f820116820180604052508101906106a29190613839565b905060006106c9828460a0015160a00151600001518560a00151608001516000015161159d565b6040805160e0810182528654815260018701546020820152600287015491810191909152600386015460608201526004860154608082015260058601546001600160401b0380821660a0840152600160401b9091041660c0820152909150600090819061073690856115c2565b915091508161075857604051637597f42d60e11b815260040160405180910390fd5b600386018490554260018701556000546040805160a0808201835288015151815288546020820152620100009092046001600160a01b03169163cd1b7a039181016107a287613868565b8152600060208201526040805160a08101825291019080600181526020018f6001600160a01b031681526020016000815260200160006001600160a01b031681526020016040518060200160405280600081525081525060405160200161080991906138ea565b6040516020818303038152906040528152506108248b6116fe565b6040518363ffffffff1660e01b815260040161084192919061395b565b610180604051808303816000875af1158015610861573d6000803e3d6000fd5b505050506040513d601f19601f8201168201806040525081019061088591906139bc565b9650610894848883600061170a565b855487516040808a015190516001600160a01b038e16937f2ef5ef7892fd47bca3fd79c40fdc998a196934760b5fefd0914d07b0fc147d58936108de938f938b928b929091613a74565b60405180910390a25050505050506108f66001600555565b9392505050565b6109056128fd565b61090d611544565b600083600001518060200190518101906109279190613b4e565b9050600061093982866020015161183a565b905061095682602001516001600160401b031683604001516118e8565b61095f81611934565b81516020908101516001600160a01b03166000908152603882526040808220838601516001600160401b031683529092522060c083015160e08401516101008501516101208601516109b693859390929091611ad5565b600060029054906101000a90046001600160a01b03166001600160a01b031663cd1b7a036040518060a0016040528086602001516001600160401b031681526020018460000154815260200186606001518152602001866080015181526020016040518060a0016040528060006002811115610a3457610a34613884565b81526020018860000151602001516001600160a01b031681526020018860a00151815260200160006001600160a01b0316815260200160405180602001604052806000815250815250604051602001610a8d91906138ea565b604051602081830303815290604052815250610aa8886116fe565b6040518363ffffffff1660e01b8152600401610ac592919061395b565b610180604051808303816000875af1158015610ae5573d6000803e3d6000fd5b505050506040513d601f19601f82011682018060405250810190610b0991906139bc565b9350600084606001511315610b43576001546001600160a01b03163314610b4357604051638173c76360e01b815260040160405180910390fd5b8054600003610bca5760208481015180835560005485519092015160405163055a6d9b60e51b815260048101929092526001600160a01b039081166024830152620100009092049091169063ab4db36090604401600060405180830381600087803b158015610bb157600080fd5b505af1158015610bc5573d6000803e3d6000fd5b505050505b8261014001516001600160a01b031663edb1dc8284606001518560800151866101600151886040518563ffffffff1660e01b8152600401610c0e9493929190613c60565b60006040518083038186803b158015610c2657600080fd5b505afa158015610c3a573d6000803e3d6000fd5b505050508260000151602001516001600160a01b03167fe98018c76c6c99e913318a2ccd4a024b6fa0e119c9e33c33fba37b246ee263bf846020015186602001518660c001518760e0015189600001518a604001518a60a00151604051610ca79796959493929190613c90565b60405180910390a2505050610cbc6001600555565b92915050565b6000546201000090046001600160a01b03163314610cf357604051637542ed5d60e11b815260040160405180910390fd5b60008260800151806020019051810190610d0d9190613cdb565b90506000610d1e8460000151611baa565b9050600282516002811115610d3557610d35613884565b03610dba5781606001516001600160a01b031663edb1dc82856040015186606001518560800151876040518563ffffffff1660e01b8152600401610d7c9493929190613c60565b60006040518083038186803b158015610d9457600080fd5b505afa158015610da8573d6000803e3d6000fd5b50505050610db583611c2b565b610f9b565b600082516002811115610dcf57610dcf613884565b03610f9b578260600151600003610ed857600080546020860151604051632500ed8d60e21b81526004810191909152620100009091046001600160a01b031690639403b634906024016102a060405180830381865afa158015610e36573d6000803e3d6000fd5b505050506040513d601f19601f82011682018060405250810190610e5a9190613723565b6000546020850151608083015160405163031adb4d60e61b8152939450620100009092046001600160a01b03169263c6b6d34092610ea092600192909190600401613d8e565b600060405180830381600087803b158015610eba57600080fd5b505af1158015610ece573d6000803e3d6000fd5b5050505050610f9b565b60408201516000811315610f0b57600054610f06906001600160a01b03848116916201000090041683611c57565b610340565b600081121561034057600060029054906101000a90046001600160a01b03166001600160a01b031663c6b6d3406001856020015184610f4990613868565b6040518463ffffffff1660e01b8152600401610f6793929190613d8e565b600060405180830381600087803b158015610f8157600080fd5b505af1158015610f95573d6000803e3d6000fd5b50505050505b50505050565b6001546001600160a01b03163314610fcc57604051638173c76360e01b815260040160405180910390fd5b600180546001600160a01b0319166001600160a01b0392909216919091179055565b600080546201000090046001600160a01b0316638670d9dc84611010856116fe565b6040518363ffffffff1660e01b815260040161102d929190613daf565b6020604051808303816000875af115801561104c573d6000803e3d6000fd5b505050506040513d601f19601f820116820180604052508101906108f69190613dd3565b600080546040805160a08082018352602087810180516001600160401b03908116855289518301516001600160a01b039081168952603884528689209251909116885290825284872054828501526060808a0151858701526080808b01518287015286519485018752600285528a51840151831685850152848701989098526101408a0151821690840152610160890151838801529351620100009095049093169463cd1b7a03949293908401926111299291016138ea565b604051602081830303815290604052815250611144846116fe565b6040518363ffffffff1660e01b815260040161116192919061395b565b610180604051808303816000875af1158015611181573d6000803e3d6000fd5b505050506040513d601f19601f820116820180604052508101906111a591906139bc565b505050565b6111b26128fd565b6000546201000090046001600160a01b031663ce1ff5aa85856111d4866116fe565b6040518463ffffffff1660e01b81526004016111f293929190613df0565b610180604051808303816000875af1158015611212573d6000803e3d6000fd5b505050506040513d601f19601f8201168201806040525081019061123691906139bc565b949350505050565b6000818152600360205260409020546001600160a01b03166112905761126381611baa565b600082815260036020526040902080546001600160a01b0319166001600160a01b03929092169190911790555b50565b600054610100900460ff16158080156112b35750600054600160ff909116105b806112cd5750303b1580156112cd575060005460ff166001145b6113355760405162461bcd60e51b815260206004820152602e60248201527f496e697469616c697a61626c653a20636f6e747261637420697320616c72656160448201526d191e481a5b9a5d1a585b1a5e995960921b60648201526084015b60405180910390fd5b6000805460ff191660011790558015611358576000805461ff0019166101001790555b611360611cd8565b61136b858484611d09565b603780546001600160a01b0319166001600160a01b0386161790558015610340576000805461ff0019169055604051600181527f7f26b83ff96e1f2b6a682f133852f6798a09c465da95921460cefb38474024989060200160405180910390a15050505050565b611406604051806080016040528060006001600160a01b031681526020016000815260200160008152602001606081525090565b81806020019051810190610cbc9190613e0f565b60005b8160600151518110156111a55760008260600151828151811061144257611442613f6e565b6020026020010151905060006001600160a01b031681600001516001600160a01b03161415801561148d575080516001600160a01b031660009081526020859052604090205460ff16155b156114ab57604051633ff0e84360e11b815260040160405180910390fd5b50806114b681613f84565b91505061141d565b6000826040015112156114f4576114f482600001518684604001516114e290613868565b6001600160a01b038816929190611d68565b6115018585858585611dfd565b600082604001511315610340578151604080840151905163031adb4d60e61b81526001600160a01b0388169263c6b6d34092610f67926001929190600401613d8e565b6002600554036115965760405162461bcd60e51b815260206004820152601f60248201527f5265656e7472616e637947756172643a207265656e7472616e742063616c6c00604482015260640161132c565b6002600555565b6000836115ae600160601b85613f9d565b6115b89190613fe3565b6112369083614011565b60008042846040015185602001516115da9190614039565b1161162357600161161a856040015186602001516115f89190614039565b428760a001516001600160401b03168860c001516001600160401b0316611e35565b915091506116f7565b836080015160000361163a575060009050806116f7565b600061271085608001518660600151611653919061404c565b61165d9190614063565b9050600085608001518660600151612710611678919061404c565b6116829190614063565b90508481106116be5760016116b386838960a001516001600160401b03168a60c001516001600160401b0316611eb4565b9350935050506116f7565b8482116116ed5760016116b383878960a001516001600160401b03168a60c001516001600160401b0316611eb4565b6000809350935050505b9250929050565b6060610cbc8233611f08565b60006060611718868061404c565b901c905083608001516000036117415760405163cb78a88f60e01b815260040160405180910390fd5b60008460800151131561178157608084015161175d8285611f67565b111561177c576040516378eff95d60e11b815260040160405180910390fd5b6117c5565b6000846080015112156117c557836080015161179c90613868565b6117a68285611f81565b10156117c5576040516378eff95d60e11b815260040160405180910390fd5b6000821180156118155750816117df866305f5e10061404c565b6117e99190614063565b8460c001511080611815575060c08401516305f5e100611809848861404c565b6118139190614063565b105b156103405760405163dbaffb0160e01b815260040160405180910390fd5b6001600555565b6040805161012081018252600060a0820181815260c0830182905260e08301829052610100830182905282526020820181905291810182905260608082019290925260808101919091526000808460a001511361189857600061189e565b8360a001515b90506040518060a001604052808560000151815260200185604001516001600160a01b031681526020018281526020016118d786611f91565b815260200184905291505092915050565b6000828152600360205260409020546001600160a01b03161580159061192757506000828152600360205260409020546001600160a01b038281169116145b61193057600080fd5b5050565b61193d816120e6565b6037546001600160a01b031663137c29fe6119c3836040805160a0810182526000606082018181526080830182905282526020820181905291810191909152506040805160a0810182526020808401516001600160a01b031660608084019182528585015160808501529083528451840151918301919091529251909201519082015290565b60408051808201825260008082526020918201528151808301835230815291860151908201528460000151602001518560600151604051602001611a0690614077565b60408051601f198184030181526080830190915260478083529091906148756020830139604051602001611a3b92919061421e565b60408051601f1981840301815260608301909152602e8083529091906148476020830139604051602001611a7092919061424d565b60408051601f198184030181529082905260808901516001600160e01b031960e089901b168352611aa7969594939260040161429e565b600060405180830381600087803b158015611ac157600080fd5b505af1158015610340573d6000803e3d6000fd5b83611c201115611af85760405163485636ef60e11b815260040160405180910390fd5b816001600160401b0316816001600160401b03161015611b1757600080fd5b620f42406001600160401b0382161115611b3057600080fd5b6002850184905560048501839055611b4b620f424083614341565b60058601805467ffffffffffffffff19166001600160401b0392909216919091179055611b7b620f424082614341565b8560050160086101000a8154816001600160401b0302191690836001600160401b031602179055505050505050565b6000805460405163324abcfb60e21b81526004810184905282916201000090046001600160a01b03169063c92af3ec9060240161078060405180830381865afa158015611bfb573d6000803e3d6000fd5b505050506040513d601f19601f82011682018060405250810190611c1f91906145f1565b60600151519392505050565b600081604051602001611c3e919061310e565b6040516020818303038152906040529050805181602001fd5b600060405163a9059cbb60e01b81526001600160a01b0384166004820152826024820152602060006044836000895af13d15601f3d1160016000511416171691505080610f9b5760405162461bcd60e51b815260206004820152600f60248201526e1514905394d1915497d19052531151608a1b604482015260640161132c565b600054610100900460ff16611cff5760405162461bcd60e51b815260040161132c906146dc565b611d07612137565b565b600054610100900460ff16611d305760405162461bcd60e51b815260040161132c906146dc565b611d398361215e565b600180546001600160a01b039384166001600160a01b0319918216179091556002805492909316911617905550565b60006040516323b872dd60e01b81526001600160a01b03851660048201526001600160a01b03841660248201528260448201526020600060648360008a5af13d15601f3d11600160005114161716915050806103405760405162461bcd60e51b81526020600482015260146024820152731514905394d1915497d19493d357d1905253115160621b604482015260640161132c565b6000811315611e1557610f06858585856001866121af565b600081121561034057610340858585856000611e3087613868565b6121af565b6000848411611e45575081611236565b60006103c0611e548787614727565b611e609061271061404c565b611e6a9190614063565b9050612710811115611e7f5782915050611236565b612710611e8c8585614727565b611e96908361404c565b611ea09190614063565b611eaa9085614039565b9695505050505050565b6000848411611ec4575081611236565b600061271086611ed4878361404c565b611ede9190614063565b611ee89190614727565b90506064811115611efc5782915050611236565b6064611e8c8585614727565b60606040518060800160405280836001600160a01b0316815260200184600001518152602001846020015181526020018460400151815250604051602001611f50919061473a565b604051602081830303815290604052905092915050565b600081611f77620f42408561404c565b6108f69190614063565b6000620f4240611f77838561404c565b6000604051602001611fa290614077565b60408051601f198184030181526080830190915260478083529091906148756020830139604051602001611fd792919061421e565b60405160208183030381529060405280519060200120611ffa836000015161226a565b83602001518460400151856060015186608001518760a001518860c001518960e001518a61010001518b61012001518c61014001518d6101600151805190602001206040516020016120c99d9c9b9a999897969594939291909c8d5260208d019b909b526001600160401b03998a1660408d01526001600160a01b0398891660608d015260808c019790975260a08b019590955260c08a019390935260e08901919091526101008801528416610120870152909216610140850152166101608301526101808201526101a00190565b604051602081830303815290604052805190602001209050919050565b8051516001600160a01b0316301461211157604051639db8d5b160e01b815260040160405180910390fd5b8051606001514211156112905760405163387b2e5560e11b815260040160405180910390fd5b600054610100900460ff166118335760405162461bcd60e51b815260040161132c906146dc565b600054610100900460ff166121855760405162461bcd60e51b815260040161132c906146dc565b600080546001600160a01b03909216620100000262010000600160b01b0319909216919091179055565b8060005b846060015151811015612260576000856060015182815181106121d8576121d8613f6e565b6020026020010151905060008160600151905060018760600151516121fd9190614727565b83036122065750825b8515612228576122238a8a8a858b600001518c60200151876122d4565b61223f565b61223f8a8a8a858b600001518c6020015187612590565b6122498185614727565b93505050808061225890613f84565b9150506121b3565b5050505050505050565b60006040518060800160405280604781526020016148756047913980516020918201208351848301516040808701516060808901518351978801969096526001600160a01b03948516928701929092529290911690840152608083015260a082015260c0016120c9565b83516001600160a01b0316612380576000600160601b6122f4848461404c565b6122fe9190614063565b60405163031adb4d60e61b81529091506001600160a01b0389169063c6b6d340906123329060009088908790600401613d8e565b600060405180830381600087803b15801561234c57600080fd5b505af1158015612360573d6000803e3d6000fd5b5061237a925050506001600160a01b038816858a84611d68565b50612587565b60405163031adb4d60e61b81526001600160a01b0388169063c6b6d340906123b19060009030908690600401613d8e565b600060405180830381600087803b1580156123cb57600080fd5b505af11580156123df573d6000803e3d6000fd5b5050855160405163095ea7b360e01b81526001600160a01b03918216600482015260248101859052908816925063095ea7b391506044016020604051808303816000875af1158015612435573d6000803e3d6000fd5b505050506040513d601f19601f820116820180604052508101906124599190613dd3565b50835160208501516040808701519051624fb85160e01b81526000936001600160a01b031692624fb8519261249b928c928c92909189919030906004016147fc565b6020604051808303816000875af11580156124ba573d6000803e3d6000fd5b505050506040513d601f19601f820116820180604052508101906124de9190613839565b905082600003612501576124fc6001600160a01b0388168983611c57565b612260565b6000600160601b612512858561404c565b61251c9190614063565b90508181111561254c5761254785306125358585614727565b6001600160a01b038c16929190611d68565b612573565b8082111561257357612573856125628385614727565b6001600160a01b038b169190611c57565b610f956001600160a01b0389168a83611c57565b50505050505050565b83516001600160a01b0316612636576000600160601b6125b0848461404c565b6125ba9190614063565b60405163031adb4d60e61b81529091506001600160a01b0389169063c6b6d340906125ee9060019088908690600401613d8e565b600060405180830381600087803b15801561260857600080fd5b505af115801561261c573d6000803e3d6000fd5b5061237a925050506001600160a01b038716858a85611d68565b604080850151905163031adb4d60e61b81526001600160a01b0389169163c6b6d3409161266b91600191309190600401613d8e565b600060405180830381600087803b15801561268557600080fd5b505af1158015612699573d6000803e3d6000fd5b50508551604080880151905163095ea7b360e01b81526001600160a01b0392831660048201526024810191909152908916925063095ea7b391506044016020604051808303816000875af11580156126f5573d6000803e3d6000fd5b505050506040513d601f19601f820116820180604052508101906127199190613dd3565b50600084600001516001600160a01b03166330d8000f88888860200151868a604001518e6040518763ffffffff1660e01b815260040161275e969594939291906147fc565b6020604051808303816000875af115801561277d573d6000803e3d6000fd5b505050506040513d601f19601f820116820180604052508101906127a19190613839565b9050826000036127d0576124fc888287604001516127bf9190614727565b6001600160a01b038a169190611c57565b6000600160601b6127e1858561404c565b6127eb9190614063565b90508181111561280857612803856125628484614727565b61281f565b8082111561281f5761281f85306125358486614727565b610f95898288604001516125629190614727565b6040518060c0016040528060008152602001600081526020016000815260200160008152602001612877604051806040016040528060008152602001600081525090565b81526020016128a76040518060800160405280600081526020016000815260200160008152602001600081525090565b905290565b6040518060c001604052806000815260200160006001600160a01b0316815260200160006001600160a01b0316815260200160006001600160a01b03168152602001600081526020016128a7612971565b6040518060e001604052806129416040518060c001604052806000815260200160008152602001600081526020016000815260200160008152602001600081525090565b81526020016000815260200160008152602001600081526020016000815260200160008152602001600081525090565b60408051610100810182526000808252602080830182905282840182905260608301829052835180850190945281845283015290608082019081526020016129e86040518060c001604052806000815260200160008152602001600081526020016000815260200160008152602001600081525090565b8152602001612a0a604051806040016040528060008152602001600081525090565b81526020016128a7604051806040016040528060008152602001600081525090565b6001600160a01b038116811461129057600080fd5b8035612a4c81612a2c565b919050565b634e487b7160e01b600052604160045260246000fd5b604051606081016001600160401b0381118282101715612a8957612a89612a51565b60405290565b604051608081016001600160401b0381118282101715612a8957612a89612a51565b604080519081016001600160401b0381118282101715612a8957612a89612a51565b60405160e081016001600160401b0381118282101715612a8957612a89612a51565b60405160c081016001600160401b0381118282101715612a8957612a89612a51565b60405160a081016001600160401b0381118282101715612a8957612a89612a51565b60405161018081016001600160401b0381118282101715612a8957612a89612a51565b60405161010081016001600160401b0381118282101715612a8957612a89612a51565b60405161022081016001600160401b0381118282101715612a8957612a89612a51565b604051601f8201601f191681016001600160401b0381118282101715612bca57612bca612a51565b604052919050565b60006001600160401b03821115612beb57612beb612a51565b50601f01601f191660200190565b600082601f830112612c0a57600080fd5b8135612c1d612c1882612bd2565b612ba2565b818152846020838601011115612c3257600080fd5b816020850160208301376000918101602001919091529392505050565b60008060008060808587031215612c6557600080fd5b8435612c7081612a2c565b93506020850135612c8081612a2c565b925060408501356001600160401b03811115612c9b57600080fd5b612ca787828801612bf9565b949793965093946060013593505050565b60008060408385031215612ccb57600080fd5b8235612cd681612a2c565b946020939093013593505050565b805182526020810151602083015260408101516040830152606081015160608301526080810151608083015260a081015160a08301525050565b80518252602081015160018060a01b03808216602085015280604084015116604085015280606084015116606085015250506080810151608083015260a0810151805160a0840152602081015160020b60c0840152604081015160020b60e08401526001600160401b036060820151166101008401526080810151612db161012085018280518252602090810151910152565b5060a0810151612dc5610160850182612ce4565b5060c0810151805161022085015260208101516102408501525060e0015180516102608401526020810151610280840152505050565b60006104c082019050845182526020850151602083015260408501516040830152606085015160608301526080850151608083015260a08501516001600160401b0380821660a08501528060c08801511660c08501525050835160e08301526020840151610100830152604084015161012083015260608401516101408301526080840151612e9861016084018280518252602090810151910152565b5060a084015180516101a084015260208101516101c084015260408101516101e084015260600151610200830152611236610220830184612d1e565b801515811461129057600080fd5b60008060408385031215612ef557600080fd5b8235612f0081612a2c565b91506020830135612f1081612ed4565b809150509250929050565b60006001600160401b03821115612f3457612f34612a51565b5060051b60200190565b600060608284031215612f5057600080fd5b612f58612a67565b905081358152602080830135818301526040808401356001600160401b0380821115612f8357600080fd5b818601915086601f830112612f9757600080fd5b8135612fa5612c1882612f1b565b81815260059190911b83018501908581019089831115612fc457600080fd5b8685015b8381101561305457803585811115612fe05760008081fd5b86016080818d03601f1901811315612ff85760008081fd5b613000612a8f565b8a83013561300d81612a2c565b8152828a0135888111156130215760008081fd5b61302f8f8d83870101612bf9565b828d0152506060838101358b8301529190920135908201528352918701918701612fc8565b5080868901525050505050505092915050565b60008060006060848603121561307c57600080fd5b833561308781612a2c565b92506020840135915060408401356001600160401b038111156130a957600080fd5b6130b586828701612f3e565b9150509250925092565b6130ca828251612ce4565b602081015160c0830152604081015160e08301526060810151610100830152608081015161012083015260a081015161014083015260c08101516101608301525050565b6101808101610cbc82846130bf565b6000806040838503121561313057600080fd5b82356001600160401b038082111561314757600080fd5b908401906040828703121561315b57600080fd5b613163612ab1565b82358281111561317257600080fd5b61317e88828601612bf9565b82525060208301358281111561319357600080fd5b61319f88828601612bf9565b6020830152508094505060208501359150808211156131bd57600080fd5b506131ca85828601612f3e565b9150509250929050565b60008183036101808112156131e857600080fd5b6131f0612ad3565b915060c081121561320057600080fd5b50613209612af5565b823581526020830135602082015260408301356040820152606083013560608201526080830135608082015260a083013560a08201528082525060c0820135602082015260e082013560408201526101008201356060820152610120820135608082015261014082013560a082015261016082013560c082015292915050565b6000806101a0838503121561329d57600080fd5b82356001600160401b03808211156132b457600080fd5b9084019060a082870312156132c857600080fd5b6132d0612b17565b8235815260208301356020820152604083013560408201526060830135606082015260808301358281111561330457600080fd5b61331088828601612bf9565b60808301525080945050505061332984602085016131d4565b90509250929050565b60006020828403121561334457600080fd5b81356108f681612a2c565b6000806040838503121561336257600080fd5b8235915060208301356001600160401b0381111561337f57600080fd5b6131ca85828601612f3e565b60006080828403121561339d57600080fd5b6133a5612a8f565b905081356133b281612a2c565b815260208201356133c281612a2c565b80602083015250604082013560408201526060820135606082015292915050565b6001600160401b038116811461129057600080fd5b8035612a4c816133e3565b6000806040838503121561341657600080fd5b82356001600160401b038082111561342d57600080fd5b908401906101e0828703121561344257600080fd5b61344a612b39565b613454878461338b565b8152613462608084016133f8565b602082015261347360a08401612a41565b604082015260c0830135606082015260e083013560808201526101008084013560a08301526101208085013560c08401526101408086013560e08501526101606134be8188016133f8565b848601526134cf61018088016133f8565b838601526134e06101a08801612a41565b828601526101c08701359350858411156134f957600080fd5b6135058b858901612bf9565b9085015250919550505060208501359150808211156131bd57600080fd5b60008060006060848603121561353857600080fd5b833592506020840135915060408401356001600160401b038111156130a957600080fd5b60006020828403121561356e57600080fd5b5035919050565b6000806000806080858703121561358b57600080fd5b843561359681612a2c565b935060208501356135a681612a2c565b925060408501356135b681612a2c565b915060608501356135c681612a2c565b939692955090935050565b6000604082840312156135e357600080fd5b6135eb612ab1565b9050815181526020820151602082015292915050565b600081830361014081121561361557600080fd5b61361d612af5565b8351815260208401516020820152604084015160408201526060840151606082015261364c85608086016135d1565b6080820152608060bf198301121561366357600080fd5b61366b612a8f565b60c0850151815260e08501516020820152610100850151604082015261012090940151606085015260a0810193909352509092915050565b8051612a4c81612a2c565b8051600281900b8114612a4c57600080fd5b8051612a4c816133e3565b600060c082840312156136dd57600080fd5b6136e5612af5565b9050815181526020820151602082015260408201516040820152606082015160608201526080820151608082015260a082015160a082015292915050565b60008183036102a081121561373757600080fd5b61373f612af5565b83518152602084015161375181612a2c565b6020820152604084015161376481612a2c565b6040820152606084015161377781612a2c565b606082015260808481015190820152610200609f198301121561379957600080fd5b6137a1612b5c565b915060a084015182526137b660c085016136ae565b60208301526137c760e085016136ae565b60408301526137d961010085016136c0565b60608301526137ec8561012086016135d1565b60808301526137ff8561016086016136cb565b60a08301526138128561022086016135d1565b60c08301526138258561026086016135d1565b60e083015260a08101919091529392505050565b60006020828403121561384b57600080fd5b5051919050565b634e487b7160e01b600052601160045260246000fd5b6000600160ff1b820161387d5761387d613852565b5060000390565b634e487b7160e01b600052602160045260246000fd5b60005b838110156138b557818101518382015260200161389d565b50506000910152565b600081518084526138d681602086016020860161389a565b601f01601f19169290920160200192915050565b60208152600082516003811061391057634e487b7160e01b600052602160045260246000fd5b80602084015250602083015160018060a01b038082166040850152604085015160608501528060608601511660808501525050608083015160a08084015261123660c08401826138be565b60408152825160408201526020830151606082015260408301516080820152606083015160a08201526000608084015160a060c084015261399f60e08401826138be565b905082810360208401526139b381856138be565b95945050505050565b60008183036101808112156139d057600080fd5b6139d8612ad3565b60c08212156139e657600080fd5b6139ee612af5565b9150835182526020840151602083015260408401516040830152606084015160608301526080840151608083015260a084015160a083015281815260c0840151602082015260e084015160408201526101008401516060820152610120840151608082015261014084015160a082015261016084015160c0820152809250505092915050565b600061016082019050878252866020830152856040830152846060830152613a9f6080830185612ce4565b82610140830152979650505050505050565b600060808284031215613ac357600080fd5b613acb612a8f565b90508151613ad881612a2c565b81526020820151613ae881612a2c565b80602083015250604082015160408201526060820151606082015292915050565b600082601f830112613b1a57600080fd5b8151613b28612c1882612bd2565b818152846020838601011115613b3d57600080fd5b61123682602083016020870161389a565b600060208284031215613b6057600080fd5b81516001600160401b0380821115613b7757600080fd5b908301906101e08286031215613b8c57600080fd5b613b94612b39565b613b9e8684613ab1565b8152613bac608084016136c0565b6020820152613bbd60a084016136a3565b604082015260c0830151606082015260e083015160808201526101008084015160a08301526101208085015160c08401526101408086015160e0850152610160613c088188016136c0565b84860152613c1961018088016136c0565b83860152613c2a6101a088016136a3565b828601526101c0870151935085841115613c4357600080fd5b613c4f8a858901613b09565b908501525091979650505050505050565b60006101e0868352856020840152806040840152613c80818401866138be565b9150506139b360608301846130bf565b6000610180820190506001600160401b0389168252876020830152866040830152856060830152613cc46080830186612ce4565b610140820193909352610160015295945050505050565b600060208284031215613ced57600080fd5b81516001600160401b0380821115613d0457600080fd5b9083019060a08286031215613d1857600080fd5b613d20612b17565b825160038110613d2f57600080fd5b81526020830151613d3f81612a2c565b6020820152604083810151908201526060830151613d5c81612a2c565b6060820152608083015182811115613d7357600080fd5b613d7f87828601613b09565b60808301525095945050505050565b92151583526001600160a01b03919091166020830152604082015260600190565b82815260406020820152600061123660408301846138be565b8051612a4c81612ed4565b600060208284031215613de557600080fd5b81516108f681612ed4565b8381528260208201526060604082015260006139b360608301846138be565b60006020808385031215613e2257600080fd5b82516001600160401b0380821115613e3957600080fd5b9084019060808287031215613e4d57600080fd5b613e55612a8f565b8251613e6081612a2c565b815282840151848201526040808401519082015260608084015183811115613e8757600080fd5b80850194505087601f850112613e9c57600080fd5b8351613eaa612c1882612f1b565b81815260059190911b8501860190868101908a831115613ec957600080fd5b8787015b83811015613f5957805187811115613ee55760008081fd5b88016080818e03601f19011215613efc5760008081fd5b613f04612a8f565b8a820151613f1181612a2c565b8152604082015189811115613f265760008081fd5b613f348f8d83860101613b09565b828d015250818701516040820152608090910151868201528352918801918801613ecd565b50928401929092525090979650505050505050565b634e487b7160e01b600052603260045260246000fd5b600060018201613f9657613f96613852565b5060010190565b80820260008212600160ff1b84141615613fb957613fb9613852565b8181058314821517610cbc57610cbc613852565b634e487b7160e01b600052601260045260246000fd5b600082613ff257613ff2613fcd565b600160ff1b82146000198414161561400c5761400c613852565b500590565b808201828112600083128015821682158216171561403157614031613852565b505092915050565b80820180821115610cbc57610cbc613852565b8082028115828204841417610cbc57610cbc613852565b60008261407257614072613fcd565b500490565b6a08ec2dadac29ee4c8cae4560ab1b81526e13dc99195c925b999bc81a5b999bcb608a1b600b8201526d1d5a5b9d0d8d081c185a5c92590b60921b601a8201527f6164647265737320656e747279546f6b656e416464726573732c0000000000006028820152721a5b9d0c8d4d881d1c985919505b5bdd5b9d0b606a1b60428201527f696e74323536207472616465416d6f756e74537172742c0000000000000000006055820152731a5b9d0c8d4d881b585c99da5b905b5bdd5b9d0b60621b606c820152751d5a5b9d0c8d4d881a195919d9525b9d195c9d985b0b60521b60808201527f75696e7432353620737172745072696365547269676765722c0000000000000060968201527f75696e743634206d696e536c697070616765546f6c6572616e63652c0000000060af8201527f75696e743634206d6178536c697070616765546f6c6572616e63652c0000000060cb8201527f616464726573732076616c696461746f72416464726573732c0000000000000060e78201527462797465732076616c69646174696f6e446174612960581b61010082015260006101158201610cbc565b6000835161423081846020880161389a565b83519083019061424481836020880161389a565b01949350505050565b7247616d6d614f72646572207769746e6573732960681b81526000835161427b81601385016020880161389a565b83519083019061429281601384016020880161389a565b01601301949350505050565b60006101406142c1838a5180516001600160a01b03168252602090810151910152565b60208901516040840152604089015160608401526142f5608084018980516001600160a01b03168252602090810151910152565b6001600160a01b03871660c084015260e08301869052610100830181905261431f818401866138be565b905082810361012084015261433481856138be565b9998505050505050505050565b6001600160401b0381811683821601908082111561436157614361613852565b5092915050565b60006080828403121561437a57600080fd5b614382612a8f565b90508151815260208201516020820152604082015160408201526060820151606082015292915050565b60008183036101c08112156143c057600080fd5b6143c8612af5565b915082516143d581612a2c565b825260208301516143e581612a2c565b602083015260c0603f19820112156143fc57600080fd5b50614405612af5565b60408301518152606083015160208201526080830151604082015260a0830151606082015260c0830151608082015260e083015160a082015280604083015250614453836101008401614368565b606082015261018082015160808201526101a082015160a082015292915050565b600060a0828403121561448657600080fd5b61448e612b17565b9050815181526144a0602083016136ae565b60208201526144b1604083016136ae565b604082015260608201516144c4816133e3565b606082015260808201516144d7816133e3565b608082015292915050565b600061026082840312156144f557600080fd5b6144fd612b7f565b9050614508826136a3565b8152614516602083016136ae565b6020820152614527604083016136ae565b6040820152614538606083016136c0565b60608201526080828101519082015260a0808301519082015260c0808301519082015260e08083015190820152610100808301519082015261012080830151908201526101408083015190820152610160808301519082015261018080830151908201526101a06145ab848285016135d1565b908201526101e06145be848483016135d1565b6101c08301526102208301519082015261024090910151610200820152919050565b805160ff81168114612a4c57600080fd5b6000610780828403121561460457600080fd5b61460c612b39565b8251815261461c602084016136a3565b602082015261462d604084016136a3565b604082015261463f84606085016143ac565b60608201526146528461022085016143ac565b6080820152614665846103e08501614474565b60a08201526146788461048085016144e2565b60c082015261468a6106e084016136a3565b60e082015261469c6107008401613dc8565b6101008201526146af6107208401613dc8565b6101208201526146c261074084016145e0565b610140820152610760929092015161016083015250919050565b6020808252602b908201527f496e697469616c697a61626c653a20636f6e7472616374206973206e6f74206960408201526a6e697469616c697a696e6760a81b606082015260800190565b81810381811115610cbc57610cbc613852565b6000602080835260a0830160018060a01b038086511683860152828601516040818188015280880151915060608281890152808901519250608080818a015285845180885260c08b01915060c08160051b8c01019750888601955060005b818110156147eb5760bf198c8a030183528651888151168a528a810151858c8c01526147c6868c01826138be565b828901518c8a0152918701519a87019a909a5298509589019591890191600101614798565b50969b9a5050505050505050505050565b600060018060a01b038089168352808816602084015260c0604084015261482660c08401886138be565b6060840196909652608083019490945250911660a090910152939250505056fe546f6b656e5065726d697373696f6e73286164647265737320746f6b656e2c75696e7432353620616d6f756e74294f72646572496e666f2861646472657373206d61726b65742c61646472657373207472616465722c75696e74323536206e6f6e63652c75696e7432353620646561646c696e6529a26469706673582212201a425b83b30d7fa45ad40ed1649325bafa74e8e4c3dc6b1bdb71b19099c980a464736f6c63430008130033",
  "devdoc": {
    "events": {
      "Initialized(uint8)": {
        "details": "Triggered when the contract has been initialized or reinitialized."
      }
    },
    "kind": "dev",
    "methods": {
      "execDeltaHedge(address,uint256,(uint256,int256,(address,bytes,uint256,uint256)[]))": {
        "details": "Anyone can call this function",
        "params": {
          "owner": "owner address",
          "pairId": "The id of pair",
          "settlementParams": "The route of settlement created by filler"
        },
        "returns": {
          "tradeResult": "The result of trade"
        }
      },
      "executeOrder((bytes,bytes),(uint256,int256,(address,bytes,uint256,uint256)[]))": {
        "params": {
          "order": "The order signed by trader",
          "settlementParams": "The route of settlement created by filler"
        }
      },
      "updateWhitelistFiller(address)": {
        "details": "only owner can call this function"
      },
      "updateWhitelistSettlement(address,bool)": {
        "details": "only owner can call this function"
      }
    },
    "version": 1
  },
  "userdoc": {
    "errors": {
      "DeadlinePassed()": [
        {
          "notice": "thrown if the order has expired"
        }
      ],
      "InvalidMarket()": [
        {
          "notice": "thrown when the order targets a different market contract"
        }
      ]
    },
    "kind": "user",
    "methods": {
      "execDeltaHedge(address,uint256,(uint256,int256,(address,bytes,uint256,uint256)[]))": {
        "notice": "Executes delta hedging"
      },
      "executeOrder((bytes,bytes),(uint256,int256,(address,bytes,uint256,uint256)[]))": {
        "notice": "Verifies signature of the order and executes trade"
      },
      "quoteExecuteOrder(((address,address,uint256,uint256),uint64,address,int256,int256,int256,uint256,uint256,uint64,uint64,address,bytes),(uint256,int256,(address,bytes,uint256,uint256)[]))": {
        "notice": "Estimate transaction results and return with revert message"
      },
      "updateQuoteTokenMap(uint256)": {
        "notice": "Registers quote token address for the pair"
      },
      "updateWhitelistFiller(address)": {
        "notice": "Updates the whitelist filler address"
      },
      "updateWhitelistSettlement(address,bool)": {
        "notice": "Updates the whitelist settlement address"
      }
    },
    "notice": "Gamma trade market contract",
    "version": 1
  },
  "storageLayout": {
    "storage": [
      {
        "astId": 6,
        "contract": "src/markets/gamma/GammaTradeMarket.sol:GammaTradeMarket",
        "label": "_initialized",
        "offset": 0,
        "slot": "0",
        "type": "t_uint8"
      },
      {
        "astId": 9,
        "contract": "src/markets/gamma/GammaTradeMarket.sol:GammaTradeMarket",
        "label": "_initializing",
        "offset": 1,
        "slot": "0",
        "type": "t_bool"
      },
      {
        "astId": 6837,
        "contract": "src/markets/gamma/GammaTradeMarket.sol:GammaTradeMarket",
        "label": "_predyPool",
        "offset": 2,
        "slot": "0",
        "type": "t_contract(IPredyPool)8458"
      },
      {
        "astId": 7197,
        "contract": "src/markets/gamma/GammaTradeMarket.sol:GammaTradeMarket",
        "label": "whitelistFiller",
        "offset": 0,
        "slot": "1",
        "type": "t_address"
      },
      {
        "astId": 7200,
        "contract": "src/markets/gamma/GammaTradeMarket.sol:GammaTradeMarket",
        "label": "_quoter",
        "offset": 0,
        "slot": "2",
        "type": "t_contract(PredyPoolQuoter)9117"
      },
      {
        "astId": 7204,
        "contract": "src/markets/gamma/GammaTradeMarket.sol:GammaTradeMarket",
        "label": "_quoteTokenMap",
        "offset": 0,
        "slot": "3",
        "type": "t_mapping(t_uint256,t_address)"
      },
      {
        "astId": 7208,
        "contract": "src/markets/gamma/GammaTradeMarket.sol:GammaTradeMarket",
        "label": "_whiteListedSettlements",
        "offset": 0,
        "slot": "4",
        "type": "t_mapping(t_address,t_bool)"
      },
      {
        "astId": 183,
        "contract": "src/markets/gamma/GammaTradeMarket.sol:GammaTradeMarket",
        "label": "_status",
        "offset": 0,
        "slot": "5",
        "type": "t_uint256"
      },
      {
        "astId": 252,
        "contract": "src/markets/gamma/GammaTradeMarket.sol:GammaTradeMarket",
        "label": "__gap",
        "offset": 0,
        "slot": "6",
        "type": "t_array(t_uint256)49_storage"
      },
      {
        "astId": 19061,
        "contract": "src/markets/gamma/GammaTradeMarket.sol:GammaTradeMarket",
        "label": "_permit2",
        "offset": 0,
        "slot": "55",
        "type": "t_contract(IPermit2)2453"
      },
      {
        "astId": 19068,
        "contract": "src/markets/gamma/GammaTradeMarket.sol:GammaTradeMarket",
        "label": "userPositions",
        "offset": 0,
        "slot": "56",
        "type": "t_mapping(t_address,t_mapping(t_uint256,t_struct(UserPosition)19036_storage))"
      }
    ],
    "types": {
      "t_address": {
        "encoding": "inplace",
        "label": "address",
        "numberOfBytes": "20"
      },
      "t_array(t_uint256)49_storage": {
        "base": "t_uint256",
        "encoding": "inplace",
        "label": "uint256[49]",
        "numberOfBytes": "1568"
      },
      "t_bool": {
        "encoding": "inplace",
        "label": "bool",
        "numberOfBytes": "1"
      },
      "t_contract(IPermit2)2453": {
        "encoding": "inplace",
        "label": "contract IPermit2",
        "numberOfBytes": "20"
      },
      "t_contract(IPredyPool)8458": {
        "encoding": "inplace",
        "label": "contract IPredyPool",
        "numberOfBytes": "20"
      },
      "t_contract(PredyPoolQuoter)9117": {
        "encoding": "inplace",
        "label": "contract PredyPoolQuoter",
        "numberOfBytes": "20"
      },
      "t_mapping(t_address,t_bool)": {
        "encoding": "mapping",
        "key": "t_address",
        "label": "mapping(address => bool)",
        "numberOfBytes": "32",
        "value": "t_bool"
      },
      "t_mapping(t_address,t_mapping(t_uint256,t_struct(UserPosition)19036_storage))": {
        "encoding": "mapping",
        "key": "t_address",
        "label": "mapping(address => mapping(uint256 => struct GammaTradeMarket.UserPosition))",
        "numberOfBytes": "32",
        "value": "t_mapping(t_uint256,t_struct(UserPosition)19036_storage)"
      },
      "t_mapping(t_uint256,t_address)": {
        "encoding": "mapping",
        "key": "t_uint256",
        "label": "mapping(uint256 => address)",
        "numberOfBytes": "32",
        "value": "t_address"
      },
      "t_mapping(t_uint256,t_struct(UserPosition)19036_storage)": {
        "encoding": "mapping",
        "key": "t_uint256",
        "label": "mapping(uint256 => struct GammaTradeMarket.UserPosition)",
        "numberOfBytes": "32",
        "value": "t_struct(UserPosition)19036_storage"
      },
      "t_struct(UserPosition)19036_storage": {
        "encoding": "inplace",
        "label": "struct GammaTradeMarket.UserPosition",
        "members": [
          {
            "astId": 19023,
            "contract": "src/markets/gamma/GammaTradeMarket.sol:GammaTradeMarket",
            "label": "vaultId",
            "offset": 0,
            "slot": "0",
            "type": "t_uint256"
          },
          {
            "astId": 19025,
            "contract": "src/markets/gamma/GammaTradeMarket.sol:GammaTradeMarket",
            "label": "lastHedgedTime",
            "offset": 0,
            "slot": "1",
            "type": "t_uint256"
          },
          {
            "astId": 19027,
            "contract": "src/markets/gamma/GammaTradeMarket.sol:GammaTradeMarket",
            "label": "hedgeInterval",
            "offset": 0,
            "slot": "2",
            "type": "t_uint256"
          },
          {
            "astId": 19029,
            "contract": "src/markets/gamma/GammaTradeMarket.sol:GammaTradeMarket",
            "label": "lastHedgedSqrtPrice",
            "offset": 0,
            "slot": "3",
            "type": "t_uint256"
          },
          {
            "astId": 19031,
            "contract": "src/markets/gamma/GammaTradeMarket.sol:GammaTradeMarket",
            "label": "sqrtPriceTrigger",
            "offset": 0,
            "slot": "4",
            "type": "t_uint256"
          },
          {
            "astId": 19033,
            "contract": "src/markets/gamma/GammaTradeMarket.sol:GammaTradeMarket",
            "label": "minSlippageTolerance",
            "offset": 0,
            "slot": "5",
            "type": "t_uint64"
          },
          {
            "astId": 19035,
            "contract": "src/markets/gamma/GammaTradeMarket.sol:GammaTradeMarket",
            "label": "maxSlippageTolerance",
            "offset": 8,
            "slot": "5",
            "type": "t_uint64"
          }
        ],
        "numberOfBytes": "192"
      },
      "t_uint256": {
        "encoding": "inplace",
        "label": "uint256",
        "numberOfBytes": "32"
      },
      "t_uint64": {
        "encoding": "inplace",
        "label": "uint64",
        "numberOfBytes": "8"
      },
      "t_uint8": {
        "encoding": "inplace",
        "label": "uint8",
        "numberOfBytes": "1"
      }
    }
  }
}