{
  "address": "0x381dA91edB6558D63Af00Dc0436A78BBd051Fb49",
  "abi": [
    {
      "anonymous": false,
      "inputs": [
        {
          "indexed": false,
          "internalType": "address",
          "name": "quotePrice",
          "type": "address"
        },
        {
          "indexed": false,
          "internalType": "address",
          "name": "basePrice",
          "type": "address"
        },
        {
          "indexed": false,
          "internalType": "uint256",
          "name": "decimalsDiff",
          "type": "uint256"
        },
        {
          "indexed": false,
          "internalType": "address",
          "name": "priceFeed",
          "type": "address"
        }
      ],
      "name": "PriceFeedCreated",
      "type": "event"
    },
    {
      "inputs": [
        {
          "internalType": "address",
          "name": "quotePrice",
          "type": "address"
        },
        {
          "internalType": "address",
          "name": "basePrice",
          "type": "address"
        },
        {
          "internalType": "uint256",
          "name": "decimalsDiff",
          "type": "uint256"
        }
      ],
      "name": "createPriceFeed",
      "outputs": [
        {
          "internalType": "address",
          "name": "",
          "type": "address"
        }
      ],
      "stateMutability": "nonpayable",
      "type": "function"
    }
  ],
  "transactionHash": "0xba2d877137575ec4d6295b79e626a1505911c0e6d169ebcd0673e78b98b3f9e6",
  "args": [],
  "numDeployments": 1,
  "solcInputHash": "5bdbb8d21fc18e3c1253724388bc7a46",
  "bytecode": "0x608060405234801561001057600080fd5b506105ec806100206000396000f3fe608060405234801561001057600080fd5b506004361061002b5760003560e01c8063b276e32614610030575b600080fd5b61004361003e366004610134565b61005f565b6040516001600160a01b03909116815260200160405180910390f35b6000808484846040516100719061010b565b6001600160a01b0393841681529290911660208301526040820152606001604051809103906000f0801580156100ab573d6000803e3d6000fd5b50604080516001600160a01b038089168252808816602083015291810186905290821660608201529091507fb0f9011f61df26371e5bf3953727f9fd4072a1f178432bf2a17b7578bd2d68b99060800160405180910390a1949350505050565b6104468061017183390190565b80356001600160a01b038116811461012f57600080fd5b919050565b60008060006060848603121561014957600080fd5b61015284610118565b925061016060208501610118565b915060408401359050925092509256fe60e060405234801561001057600080fd5b5060405161044638038061044683398101604081905261002f91610066565b6001600160a01b03928316608052911660a05260c0526100a2565b80516001600160a01b038116811461006157600080fd5b919050565b60008060006060848603121561007b57600080fd5b6100848461004a565b92506100926020850161004a565b9150604084015190509250925092565b60805160a05160c0516103776100cf60003960006101970152600060d901526000604f01526103776000f3fe608060405234801561001057600080fd5b506004361061002b5760003560e01c806386e6862d14610030575b600080fd5b61003861004a565b60405190815260200160405180910390f35b6000807f00000000000000000000000000000000000000000000000000000000000000006001600160a01b031663feaf968c6040518163ffffffff1660e01b815260040160a060405180830381865afa1580156100ab573d6000803e3d6000fd5b505050506040513d601f19601f820116820180604052508101906100cf91906102a4565b50505091505060007f00000000000000000000000000000000000000000000000000000000000000006001600160a01b031663feaf968c6040518163ffffffff1660e01b815260040160a060405180830381865afa158015610135573d6000803e3d6000fd5b505050506040513d601f19601f8201168201806040525081019061015991906102a4565b50505091505060008213801561016f5750600081135b61017857600080fd5b600082610189600160601b846102f4565b610193919061031f565b90507f00000000000000000000000000000000000000000000000000000000000000006101c4600160601b836102f4565b6101ce919061031f565b90506101d9816101e1565b935050505090565b60b581600160881b81106101fa5760409190911b9060801c5b690100000000000000000081106102165760209190911b9060401c5b65010000000000811061022e5760109190911b9060201c5b630100000081106102445760089190911b9060101c5b62010000010260121c80820401600190811c80830401811c80830401811c80830401811c80830401811c80830401811c80830401901c908190048111900390565b805169ffffffffffffffffffff8116811461029f57600080fd5b919050565b600080600080600060a086880312156102bc57600080fd5b6102c586610285565b94506020860151935060408601519250606086015191506102e860808701610285565b90509295509295909350565b808202811582820484141761031957634e487b7160e01b600052601160045260246000fd5b92915050565b60008261033c57634e487b7160e01b600052601260045260246000fd5b50049056fea264697066735822122003d0500f735d3c4db09db84a75c540d6bc7c7425ab52001ffb6a0baf3568853164736f6c63430008130033a26469706673582212205ead7aea46222a82ad7288880d9ed8621a83de3be483e06cdb04357c12c5f93f64736f6c63430008130033",
  "devdoc": {
    "kind": "dev",
    "methods": {},
    "version": 1
  },
  "userdoc": {
    "kind": "user",
    "methods": {},
    "version": 1
  },
  "storageLayout": {
    "storage": [],
    "types": null
  }
}